:020000040800F2
:100000008011002085090008B50500087109000865
:10001000710900087109000871090008000000005A
:100020000000000000000000000000004D0A000871
:100030007109000800000000ED0900089117000890
:10004000050C0008050C0008050C0008050C00084C
:10005000050C0008050C0008050C0008050C00083C
:10006000050C0008050C0008050C0008050C00082C
:10007000050C0008050C0008050C0008050C00081C
:10008000050C0008050C0008050C0008050C00080C
:10009000050C0008050C0008050C0008050C0008FC
:1000A000050C0008050C0008050C0008050C0008EC
:1000B000050C0008050C0008050C0008050C0008DC
:1000C000050C0008050C0008050C0008050C0008CC
:1000D000050C0008050C0008050C0008050C0008BC
:1000E000050C0008050C0008050C0008050C0008AC
:1000F000050C0008050C0008050C0008050C00089C
:10010000050C0008050C0008050C0008050C00088B
:10011000050C0008050C0008050C0008050C00087B
:10012000050C0008050C0008050C0008050C00086B
:10013000050C0008050C0008050C0008050C00085B
:10014000050C0008050C0008050C0008050C00084B
:10015000050C0008050C0008050C0008050C00083B
:10016000050C0008050C0008050C0008050C00082B
:10017000050C0008050C0008050C0008050C00081B
:10018000050C0008050C0008050C0008050C00080B
:10019000050C0008050C0008050C0008050C0008FB
:1001A000050C0008050C0008050C0008050C0008EB
:1001B000050C0008050C0008050C0008050C0008DB
:0401C000050C000822
:1001C40053B94AB9002908BF00281CBF4FF0FF31BA
:1001D4004FF0FF3000F00CB8ADF1080C6DE904CE1F
:1001E40000F008F8DDF804E0DDE9022304B070470C
:1001F400704700BF2DE9F04786468C460846089EA6
:10020400154674461946002B40F0C2808542B2FA66
:1002140082F245D94AB1C2F1200300FA02FC2EFA57
:1002240003F3954043EA0C0C94404FEA154EA8B2F0
:10023400BCFBFEF8230C0EFB18CC08FB00F943EAC8
:100244000C43994528D9EB1808F1FF3704D2994596
:1002540002D9A8F102072B44A3EB0903A4B2B3FB10
:10026400FEFC0EFB1C330CFB00F044EA0344A042EA
:1002740014D92C190CF1FF3304D2A04202D9ACF1E9
:1002840002032C44241A43EA07401EB1D44000233D
:1002940034607360BDE8F0874746DDE76346F1E705
:1002A40092BB431B01214FEA154EAFB2B3FBFEFCD8
:1002B400200C0EFB1C330CFB07F840EA0343984563
:1002C40062D9EB180CF1FF3004D2984502D9ACF195
:1002D40002002B44A3EB0803A4B2B3FBFEFC0EFB09
:1002E4001C330CFB07F744EA0344A7424ED92C19EC
:1002F4000CF1FF3304D2A74202D9ACF102032C441F
:10030400E41B43EA0040C0E7C2F1200320FA03F1F2
:10031400954090402EFA03F303434FEA154EAFB2D3
:10032400B1FBFEFC0EFB1C10190C0CFB07F841EA98
:100334000041884504FA02F422D969180CF1FF300F
:1003440004D2884502D9ACF102002944A1EB08018A
:100354009BB2B1FBFEFC0EFB1C110CFB07F743EA3E
:1003640001439F420ED9EB180CF1FF3104D29F4296
:1003740002D9ACF102012B44DB1B41EA004192E7B4
:100384006046E3E76146F7E76046A3E76346B7E7FD
:10039400834206D916B9002108467BE7C6E900E086
:1003A400F9E7B3FA83F78FB9834201D3724508D8CA
:1003B400BEEB020460EB030301209C461EB900213E
:1003C40068E73846FAE7C6E9004CF8E7C7F1200CBD
:1003D400BB4022FA0CF41C432EFA0CF120FA0CF365
:1003E400B84001434FEA14490EFA07F5B3FBF9F894
:1003F4001FFA84FE09FB18300B0C08FB0EFA43EAC3
:1004040000439A4502FA07F240D9E31808F1FF3095
:1004140004D29A4502D9A8F102002344A3EB0A03AB
:1004240089B2B3FBF9F809FB183308FB0EFE41EA65
:1004340003418E452CD9611808F1FF3304D28E454F
:1004440002D9A8F10203214443EA0040A0FB029828
:10045400A1EB0E014145CE46434602D306D14D459C
:1004640004D2B9EB020E68EB04030138002EA6D0C7
:10047400B5EB0E0261EB030101FA0CFC22FA07F35F
:100484004CEA0303F940C6E9003198E74046C5E762
:100494004346D9E708B50D4803F072FD08B90020BA
:1004A40008BD4FF4D0110A4802F09BFD002806DA7B
:1004B400F5E700F075F84FF4FA7002F0A7FD044870
:1004C40002F09AFD0028F4D0E9E700BF784500085F
:1004D4004449000808B5024B1B68984708BD00BF93
:1004E40000000020014B1860704700BF000000208E
:1004F40000B585B00A460023009301930293039349
:1005040002238DF80230044B01930146684602F041
:10051400E3FA05B05DF804FBD904000880B505468C
:100524000E461746984602F023F8034603F034FFBC
:100534000446DFF8189049F8003042463946304600
:10054400A84754F8090000F035FA00BF080000007D
:10055400034A536843F0020353600020704700BF0E
:10056400002004E0084B1A6842F480721A601A688A
:1005740042F400721A601A6842F480621A60034BF3
:10058400034A1A60704700BF003C02404800002044
:100594000024F400014B0360002070474C4900081C
:1005A40008B5024802F0B9FD08BD00BF4C49000877
:1005B40008B5034B1B68984700F02EF808BD00BF30
:1005C4000400002030BFFFF7FDBF00BF38B504466C
:1005D400054D2A46054903F065FE054A00216019C8
:1005E40003F06EFE38BD00BF00000000444900085F
:1005F4000400000070B50646054D064B1D444C1B17
:100604002046FFF7E3FF083C346705F1080070BD9E
:100614000000000004000000054B5A699B689A42E0
:1006240004D0044A536843F080535360704700BFBA
:100634006803002000ED00E038B51546204B9B6AA6
:1006440013F4805F19D116241D4B9B6A13F4006FB9
:1006540000D018241A4B9B6A13F4007F10D0184B57
:100664009A6B9B6A13F4004F09D0D9B1144A936A68
:1006740023F400439362192402E01724E4E71924C5
:100684000F4B9B6A13F4806F00D01A240C4B9B6AA7
:1006940013F4807F08D10A4B9B6A13F4005F04D0E3
:1006A4001C2402E01924EBE71B24054A936A43F453
:1006B4007F439362012102F04EFD2870204638BD2D
:1006C40000ED00E0174B9B6A13F0007F25D11D203D
:1006D400144B9B6A13F0807F00D01F20114B9B6A40
:1006E40013F4002F00D021200E4B9B6A13F4802FAB
:1006F40000D022200B4B9B6A13F4003F00D0232030
:10070400084B9B6A13F4803F09D1064A936A6FEA47
:1007140003436FEA1343936270471E20D8E72420F3
:10072400F3E700BF00ED00E081690D4B5A6942F424
:1007340080725A61BFF34F8FBFF36F8F31F8021C81
:100744005A6922F480725A61BFF34F8FBFF36F8FDF
:100754004DF60273994201D0002070470120704782
:1007640000ED00E070B504461646324B9B6A13F068
:10077400100F1AD110252F4B9B6A13F0080F00D0CD
:1007840012252C4B9B6A13F0020F10D0294B586B87
:100794009B6A13F0800F3DD000293FD0254A936A0D
:1007A40023F080039362132503E01125E3E76FF040
:1007B4001500204B9B6A13F0010F00D014251D4B2C
:1007C4009B6A13F0200F00D015251A4B9B6A13F077
:1007D400100F04D1174B9B6A13F0020F04D0154B72
:1007E4005B6813F4006F1BD1124B9B6A13F0200F4C
:1007F40004D0104A536A23F4005353620D4A936A97
:1008040043F0FF0393620121204602F0A4FC307000
:10081400284670BD6FF015001325CAE71325C8E7F5
:10082400214600F08FF90028DED080F309880225E4
:10083400DAE700BF00ED00E038B5054600230B7091
:100844001A4BD86A10F002002DD10C46DB6A002B3B
:100854002ADB164BD86A10F0804025D02846FFF7D3
:1008640063FF08B128681FE0104B9B6A13F0FF0F69
:100874000DD10E4B986A10F47F400ED10B4B9B6A3E
:10088400B3F5803F10D32846FFF71CFF0CE0224647
:1008940001212846FFF766FF06E02246012128468B
:1008A400FFF7CAFE00E0002038BD00BF00ED00E005
:1008B40030B58BB00C46264B5968C1F308010023B0
:1008C40083F31188BFF36F8F02F07F43B3F17F4F3F
:1008D40015D102F00C03082B14D012F0080F0BD022
:1008E40000250DF12702204602F03AFC86469DF8C9
:1008F400273053B10BB030BD04460125F1E7002584
:100904002C46EEE700252C46EBE70DF1040C20689D
:100914006168A268E368ACE80F0020696169A269B4
:10092400E369ACE80F0045B1C3F308025AB96FEAB2
:1009340053236FEA4323089305E0089B23F4FF73D2
:1009440023F00103089301A9704602F0F5FBD1E7F7
:1009540000ED00E0044B5A6942F010025A615A69F2
:1009640022F008025A61704700ED00E0EFF30880BE
:10097400EFF3098101B57246FFF79AFF01BD00BF8D
:100984000A4880F30888102080F3118808484FF43F
:100994000461401880F30988EFF3148002210843AE
:1009A40080F31488BFF36F8F00F090F8801100205B
:1009B400C003002008B50A4B9B68834202D001F0B3
:1009C400DDFD08BDEFF30583002BF8D0054B5A6815
:1009D40042F080525A605A6A22F400425A62EEE7A8
:1009E4006803002000ED00E014498A684FF03000ED
:1009F4001044EFF3098C80E8F01F102080F3128874
:100A0400BFF36F8F0E4F4FF000664A698A603E60F5
:100A1400106F0C4C2060506F0023536780F31188D3
:100A240004B5104600F00AF9BDE8044002F13000B4
:100A340090E8F01F8CF309887047000068030020D9
:100A440004ED00E0200200201EF0040F0CBFEFF3C1
:100A54000880EFF30980816911F8021C0229FFD094
:100A640001B5724602F071FB01BD00BF002807DB2F
:100A740000F01F02400901239340024A42F820304B
:100A8400704700BF00E100E0002808DB0901C9B29B
:100A940000F1604000F5614080F80013704700F0F9
:100AA4000F000901C9B2014B1954704714ED00E05D
:100AB400044B23F07F03044A9360BFF34F8FBFF3CB
:100AC4006F8F70470000000800ED00E008B5FFF7E5
:100AD400EFFF0B4AD2F8883023F47003C2F8883051
:100AE400EFF3148323F0040383F31488BFF36F8FAD
:100AF40001F060F901F088FE00F068F801F0B8F93F
:100B040000ED00E010B4A2F120040D4942F8081CE5
:100B140021F0010142F8081C42F8203C019B42F8F4
:100B24001C3C029B42F8183C039B42F8143C4FF0D7
:100B3400807342F8043C04650023436710BC70478B
:100B4400210500080E4B9B68A3B110F1160F0AD0C3
:100B54001A6EA2F1400C84450ED882420ED98A4204
:100B640006D8002070471A6E8A4201D800207047C8
:100B7400186E7047002070470020704700207047AF
:100B84006803002008B50E461546094A9060026FB6
:100B9400084B1A6000F052F82C4686F309880020AE
:100BA400054B98472046002100220023034C204790
:100BB4006803002020020020CD3100082105000830
:100BC400014B10221A61704700ED00E0002206E09C
:100BD40003F00F030949194410230B760132602AEC
:100BE4000ADC53B2002BF3DB03F1604303F56143EA
:100BF400102183F80013F1E7704700BFFCEC00E01C
:100C040008B5EFF30583103B044A02EBC3014968BE
:100C140052F833008847FFF7FFFC08BDD8450008A9
:100C240008B5034B034A0121034802F011FC08BD37
:100C340000000220000000205C49000808B5036E93
:100C4400403B0548036040234360044B836001211B
:100C540002F002FC08BD00BF2402002000000B15B6
:100C6400084AC2F898000B6823F01F03034343F0BB
:100C74001003C2F89C308B6843F00103C2F8A03023
:100C8400704700BF00ED00E0084BD3F89030C3F389
:100C94000723013B984205D810B50446FFF7E0FF4F
:100CA400204610BD6FF01500704700BF00ED00E056
:100CB40010B5034C0123227802F0CAFA207010BD4B
:100CC4009C03002008B500230B4A127802F0C0FAF6
:100CD40010F1160F0FD0024606E0084BC3F8982017
:100CE4000021C3F8A0100132044BD3F89030C3F3B1
:100CF40007239342F1DC08BD9C03002000ED00E0D3
:100D0400044B0522C3F89420BFF34F8FBFF36F8FBA
:100D1400704700BF00ED00E0BFF35F8F024B00227D
:100D2400C3F89420704700BF00ED00E038B51C4BB9
:100D34001D681C4BD3F89030C3F307239D422BD876
:100D4400FFF7EAFF002409E0154B5B6804EB44015C
:100D540003EB81012046FFF783FF0134A542F3D85A
:100D64001148057002F09CFA10F1160F13D00E4BC7
:100D74001A780C4BD3F89030C3F307239A4207DA5E
:100D8400084BC3F898200021C3F8A0100132F0E703
:100D9400FFF7B6FF002038BD4FF0FF30FBE700BF80
:100DA4006849000800ED00E09C03002008B5024BF0
:100DB4001B689847002008BD30020020034B1860D0
:100DC400034A937843F00203937070473002002083
:100DD4000800002008B5064921F00701C1F10052BE
:100DE40002F50032034802F054F9002008BD00BFA8
:100DF400C71100203402002070B50546002401E02C
:100E04000134E4B26B78A34215D32B782344DAB2CD
:100E140001209040084A526930EA0202F0D1064AA1
:100E24005061064A52F83360002EE9D002EBC30346
:100E34005968B047E4E770BD003C0140400200201F
:100E440000B583B0002300930193BDF80030442221
:100E540062F30B03ADF800304FF480430193064B6B
:100E64009B681B682BB169460348984703B05DF83B
:100E740004FB6FF05700F9E7384400080023994257
:100E84000ADD10B400EB030C044C04F80C2001330D
:100E94009942F7DC10BC7047704700BF180000206F
:100EA4005FFA81FC0CF102020A4B53F822200B0C6E
:100EB40022EA114193FAA3F34BB1B3FA83F39840B6
:100EC40001430CF1020C034A42F82C107047202312
:100ED400F5E700BF00380140C3B20233074A52F8B5
:100EE4002320030C02EA104093FAA3F31BB1B3FAD4
:100EF40083F3D84070472023FBE700BF003801404C
:100F040008B5034668B1B0FA80F2C2F11F02D2B24A
:100F140005498856054A11680B43136002F043F9EA
:100F240008BDFF22F4E700BF18000020003C014088
:100F3400024A136823EA000313607047003C01402F
:100F4400032926D8DFE801F0020C151E114B9A681C
:100F540022EA00029A60DA6822EA0002DA60704744
:100F64000C4B9A6802439A60DA6822EA0002DA605B
:100F74007047084BDA680243DA609A6822EA000292
:100F84009A607047034B9A6802439A60DA68104388
:100F9400D8607047003C014010B498B1B0FA80F3B7
:100FA400C3F11F03DBB29C460D4850F8330088425E
:100FB4000AD088B90A4B43F83C1003EBCC035A60BF
:100FC40010BC7047FF23EEE7054C04EBC3035B68DA
:100FD4009342EED10020F3E76FF00F00F0E700BF7B
:100FE4004002002060B1B0FA80F3C3F11F03DBB20A
:100FF400044A002142F8331002EBC30251607047E7
:10100400FF23F5E7400200200C4B1B6813F0020F8E
:1010140009D10A4A136843F001031360074B1B68A4
:1010240013F0020FFAD0054A936823F00303936088
:10103400024B9B6813F00C0FFAD170470038024042
:101044000C4B1A6842F480221A601A6842F4803207
:101054001A60084B1B6813F4003FFAD0054A536F1B
:1010640043F001035367034B5B6F13F0020FFAD095
:10107400704700BF00380240F8B50C461546404B97
:101084001E680221304602F05FFA0746012130460D
:1010940002F05AFA2388C3F30B021346442A29D8D0
:1010A40012B2002A64D0013B432B64D8DFE803F07A
:1010B4003D53565A5D3F496363636363636363638C
:1010C40063636363636363636363636363636363EC
:1010D4006363636363636363636363636363632916
:1010E400636363296363633763636363636363395C
:1010F4006363633BA82A01D12E6003E06FF085008F
:101104003BE02E602368B3F5805F37D32A68C3F3CE
:1011140013330133B2FBF3F22A6000202DE02E607A
:10112400F0E72F60EEE72860ECE72E60EAE700F0D6
:10113400C5F804234FF4C072082102F0FEF92860B8
:10114400E0E700F0BBF808234FF4C072194602F040
:10115400F4F92860D6E700232B60D3E74FF4FA4371
:101164002B60CFE700232B60CCE7064B2B60C9E74D
:101174006FF0850001E06FF08500F8BD0020FCE70A
:101184004800002000127A0010B5184B9B6803F049
:101194000C03082B22D0154A136823F080731360C4
:1011A400124B1B6813F0007FFAD1104C636823F4D0
:1011B400403343F480336360636823F0706343F027
:1011C4000063636000F07EF8236843F0807323605B
:1011D400064B1B6813F0007FFAD010BDFFF714FF15
:1011E400024A936823F0F0039360D4E70038024086
:1011F40038B500F081F8204C204602F038FA00F0AF
:10120400ABFB1E4B9B68C3F303131D4AD35C20FA4C
:1012140003F513781C41A54226D3FFF711FFFFF70E
:10122400B3FF164A936823F0F0039360936823F0A6
:10123400030343F002039360104B9B6803F00C0319
:10124400082BF9D1A54213D20E4B0B4A1A600B4A54
:10125400936823F4E05343F480539360936823F436
:1012640060439360002038BD204600F03DFCD4E785
:10127400204600F039FCE7E700D8B8050038024002
:10128400184C00084800002070B40A4C66680A4DE7
:101294003540084340EA821005436560626822F4E1
:1012A40040321A436260626822F0E0421343636092
:1012B40070BC7047003802400080BFFF0048704790
:1012C40000127A0010B502F0D3F904464FF48033CB
:1012D4004FF4C0720821FFF7D7FF04494A68044B52
:1012E4001340044A224313434B6010BD00380240AC
:1012F4000080BFF00860000882B0064B1A6C42F010
:1013040080521A641B6C03F080530193019B02B05A
:10131400704700BF0038024010B504460A2806D0C2
:10132400E1B2064883685B689847204610BD0348CD
:1013340083685B680D219847F2E700BF9845000871
:1013440010B5044C2046FFF739FD2046FFF7CAF8D4
:1013540010BD00BF1D13000808B5054802F010FEBB
:1013640018B1FFF7EDFF002008BD6FF01200FBE796
:101374009845000808B5436841B103F10C010B4BD3
:101384009B681B685BB10948984708BD03F10C01D1
:10139400064B9B685B682BB104489847F5E76FF0F0
:1013A4005700F2E76FF05700EFE700BF384400083A
:1013B4002DE9F8430F4616461C46D0F80480D0F8B1
:1013C4001090D8F8080002F09AF8B6F5001F0FD074
:1013D4000546B6F5800F2DD0B4F1806F26D0B4F158
:1013E400C06F25D0B4F1007F09D06FF015041AE066
:1013F4003946D8F8080002F039FB002413E002262D
:101404004A460F492846FFF7C7FD0446A8B9D8F84D
:101414000810384602F076F831462846FFF790FD6A
:101424002846FFF76DFD2046BDE8F8830126E7E76F
:101434000326E5E76FF08504F5E76FF00F04F2E7A4
:101444003F37000810B5044603695860074802F0A6
:1014540097FD38B101212046FFF78CFF002800DBFF
:10146400002010BD6FF01200FBE700BF38440008F5
:10147400B0F5887F17D2F8B504460D461646030921
:101484000A4A52F823705FB1384602F079FD38B148
:1014940033462A4604F00F01384602F0FFFAF8BD3D
:1014A4006FF01200FBE76FF015007047044B000863
:1014B40010B50446B2F5004F2FD04FF0000C481879
:1014C4004CEB0C0C40184CF1000C4FEACC0C4CEAE1
:1014D400507CC00040184FEA83024FEA93734CF1EA
:1014E4000001FEF76DFE2449A1FB00235B091A01EC
:1014F40092B24FF0640C0CFB13031B013233A1FBBB
:101504000313C3F34F1303F0F0010A4492B203F040
:101514000F0313449BB2A36010BD4FF0000C481896
:101524004CEB0C02401842F10002D20042EA507225
:10153400C000401842F10001DA184CEB0C03FEF72E
:101544003FFE0D49A1FB00235B091A0192B24FF043
:10155400640C0CFB1303DB003233A1FB0313C3F352
:101564004F13590001F4F8710A4492B203F00703CF
:1015740013449BB2A360CFE71F85EB512DE9F041E3
:101584000C4643681D6803695E680B79012B60D0C3
:10159400022B61D14FF480676279012A61D0022A5B
:1015A40061D0002A5AD04FF4005194F806E0BEF1FD
:1015B400040F5BD0002B5CD14FF00008A3F1030CA7
:1015C4005FFA8CFCBCF1010F63D913B1BEF1040FB7
:1015D40062D0B1F5805F51D0B1F5405F50D00029A1
:1015E4004AD003239A425AD1B8F1000F4AD1002FAE
:1015F4004DD103239E4555D1E379C3B1012B54D179
:101604002D4B9D4213D0A3F54C439D420FD003F5BF
:1016140080639D420BD003F580639D4207D003F5A0
:1016240080639D4203D003F544439D4240D1EB685F
:1016340023F40053EB60214602F0F0FAEB6843F424
:101644000053EB6094E8030086E803000020BDE843
:10165400F0814FF4C0679FE700279DE74FF4805166
:10166400A3E70021A1E74FF440519EE74FF48058CF
:10167400A4E74FF48058A1E70123B3E70023B1E7BF
:101684000223AFE70FB90423B4E70323B2E702232D
:10169400B0E76FF08500DAE76FF08500D7E76FF009
:1016A4008500D4E76FF08500D1E76FF08500CEE7C1
:1016B4006FF08500CBE700BF0010014008B5024A77
:1016C40002F080FB08BD00BF373E000808B5024A9F
:1016D40002F092FB08BD00BF3D3E000838B54568E6
:1016E40004690948206002F04BFC48B12068E968AD
:1016F40083681B680BB1984738BD6FF05700FBE750
:101704006FF01200F8E700BF384400084FF0E02300
:10171400996918699A6909B90C4B19680AB90B4B8C
:101724001A6810F4803F01D1914208D208490B682D
:101734000648006803440B604FF0E0231B69034B29
:101744001B689B1A024A10681844704764030020FF
:10175400600300200A4B102283F82320094B4FF426
:1017640016521A600020084B18604FF0E02342F232
:101774007F525A6198611A6942F007021A617047F0
:1017840000ED00E06403002060030020684620F0C0
:1017940007018D4619B5FFF7B9FF12480368124ACD
:1017A400516814681B1941F1000113605160002253
:1017B40002600E490A68981A0D4BA3FB0030800A98
:1017C4004FF4165300FB03F3D2184B6843F10003A4
:1017D4000A604B6001F0F6F8FEF71EFFBDE8194001
:1017E40085467047600300207800002070000020C8
:1017F400B5814E1BF8B500294DD0B0F1FF3F3FD065
:101804003F4B1C6801284EDD40F2D3639842A8BFC9
:101814001846461EEFF31185102383F31288BFF395
:101824006F8FFFF773FF4FF0E0239F69354A13680A
:101834005168C31841F10001136051600021324A1C
:101844001160324A11685A1A2FD44FF4165000FB13
:10185400062202F515523F322D4EA6FB0262920A71
:10186400C91A00FB02110A46B1F5806F38BF4FF464
:101874008062284B994236D9214B264A1A6018E0D7
:101884004FF0E022136923F0010313611C4B4FF066
:101894007F421A6026E01A4B1C68B0F1FF3FB1D1B9
:1018A40040F2D260B0E70026B4E7154B4FF48062F3
:1018B4001A604FF0E0239969114A1268013A5A619B
:1018C40000229A618F4211D2641A3C440D4A136873
:1018D40051681B1941F100011360516085F31188AF
:1018E400BFF36F8FF8BD064B1A60E2E77F1A054A13
:1018F40013685168DB1941F1000113605160EDE791
:1019040064030020780000206003002070000020A1
:10191400B5814E1B00C3FF0038B5EFF311851023CA
:1019240083F31288BFF36F8F084B1C68084B1B6846
:10193400E41AFFF7EBFE204485F31188BFF36F8FA1
:10194400044BA3FB0030800A38BD00BF78000020A0
:1019540070000020B5814E1B08B5604B9B6803F0F6
:101964000C03082B07D00C2B5FD0042B01D05C4850
:1019740008BD5C48FCE7594B5A6802F03F025B68BB
:1019840013F4800F2CD0554B5868C0F388104FEADD
:10199400401CBCEB000C6EEB0E0E4FEA8E1343EAB8
:1019A4009C634FEA8C11B1EB0C0163EB0E03DB007B
:1019B40043EA5173C90011EB000C43F100035902CF
:1019C40000234FEA4C2041EADC51FEF7F9FB434B7C
:1019D4005B68C3F3014301335B00B0FBF3F0C7E77B
:1019E4003E4B5868C0F388104FEA401CBCEB000C17
:1019F4006EEB0E0E4FEA8E1343EA9C634FEA8C1192
:101A0400B1EB0C0163EB0E03DB0043EA5173C90035
:101A140011EB000C43F10003990200234FEA8C20E0
:101A240041EA9C51FEF7CCFBD1E72C4B5A6802F0FB
:101A34003F025B6813F4800F2AD0284B5868C0F328
:101A440088104FEA401CBCEB000C6EEB0E0E4FEA04
:101A54008E1343EA9C634FEA8C11B1EB0C0163EBE8
:101A64000E03DB0043EA5173C90011EB000C43F190
:101A74000003590200234FEA4C2041EADC51FEF7EF
:101A84009FFB164B5B68C3F30273B0FBF3F06FE785
:101A9400124B5868C0F388104FEA401CBCEB000C92
:101AA4006EEB0E0E4FEA8E1343EA9C634FEA8C11E1
:101AB400B1EB0C0163EB0E03DB0043EA5173C90085
:101AC40011EB000C43F10003990200234FEA8C2030
:101AD40041EA9C51FEF774FBD3E700BF0038024093
:101AE4000024F40000127A00034600287DD0414A05
:101AF400126802F44042B2F5404F22D000223D4920
:101B0400096801F44041B1F5004F3DD039490968F5
:101B140001F44041B1F5804F55D037490B6823F0AB
:101B24000F0313430B600221334B1B6803F00F03B5
:101B340001399A4201D00029F6D19A4257D00120A6
:101B4400704702F10F6202F58C52904204D82B4A7E
:101B5400904213D9002200E005228AB128498B4221
:101B640001D902B9032227498B4200D952B126492F
:101B74008B42C4D9002AC2D10122C0E70022EDE77A
:101B84000422EBE70222BAE701F10F6101F5A34158
:101B94008B4201D902B9052218498B4201D902B9F5
:101BA400042217498B4201D902B9032215498B42F9
:101BB40000D932B114498B42A8D9002AA6D10122F6
:101BC400A4E70222A2E70E498B4201D902B90322FB
:101BD4000C498B4200D932B10B498B429DD9002A62
:101BE4009BD1012299E7022297E701207047002048
:101BF400704700BF00700040003C0240000E270701
:101C0400804A5D050087930380C3C901034B00E04C
:101C14002033034A9342FBD3704700BF3844000883
:101C2400D845000838B5EFF31185102383F31288E3
:101C3400BFF36F8F054B9C6802F0BAF985F31188E6
:101C4400BFF36F8F2046FEF7B5FE38BD6803002052
:101C540038B505460B4B53F8204002E023689847FB
:101C640008346B1C074A52F82330A34209D9606830
:101C74000028F3D0037F13F0010FF1D102F09BF998
:101C8400EEE738BD304C000810B586B0104C04EBBC
:101C9400C01400EB400C00EB80000E4B03EB800300
:101CA40000220592012104910F21039102920192D5
:101CB4000093094B4FF4A072084901EBCC11204664
:101CC40000F014F9637B23F00403637306B010BDC2
:101CD4008000002068030020F93F0008000C002069
:101CE40008B553EA020102D100F01EFC08BD024906
:101CF400183000F0C5FDF9E7B541000810B586B00D
:101D0400184C14E0636A0593236A0493E36903930C
:101D1400A36902936369019323690093E368A2684A
:101D24006168206800F0E2F823685C6530340E4B8B
:101D34009C42E7D300F0D0FA0A4C00E030340A4B5E
:101D44009C420BD2A26AE36AB3F1FF3F08BFB2F12F
:101D5400FF3FF3D02068FFF7C3FFEFE700F0D4FAAA
:101D640006B010BDE0480008E048000808B50A4B7A
:101D740001221A700320FFF76BFF00F0A5FE042078
:101D8400FFF766FFFFF7BAFFFEF784FB034A137BF6
:101D940023F00103137308BD9D03002000010020FC
:101DA40008B50146014A0248FEF7ECFE711D000821
:101DB4000001002008B50348034A121A002102F06A
:101DC40011F908BD70000020A003002010B50446DE
:101DD400FFF75AFF0B4901EBC4110B4A04EB8403D0
:101DE40002EB8303D9601C7404EB4411074B03EB2F
:101DF400811303F5046304EB840402EB840253604F
:101E040010BD00BF8000002068030020C003002034
:101E140070B586B000F0B0FA104D114B5D61114BF6
:101E240005930123049300240394029401940094E1
:101E34000D4B4FF480620D49284600F057F80646D2
:101E44006B7B23F004036B73284602F069F9204688
:101E5400FFF7BCFF304606B070BD00BF0001002094
:101E640068030020284C0008711D0008800D002024
:101E740008B50020FFF7ECFE194B83F30888194CD2
:101E8400636943F400736361F02384F82230002310
:101E9400E37723766376A37684F82030636A43F489
:101EA400E0236362FEF756FDFEF78AFE4FF0FF3330
:101EB400A362E362FEF73AFFFEF7B2FE0A4800F0BF
:101EC40045F8FFF7A3FEFEF74DFB0120FFF7C0FE28
:101ED4000220FFF7BDFEFFF79BFFFFF761FF00BF86
:101EE400000C002000ED00E080010020F0B585B07A
:101EF40004460E4615461F4600F158038365C36524
:101F04000E9B04220D9902F0A5F82A46314620467C
:101F140002F07DF805460C9B02930B9B01930A9BF0
:101F240000933B46024631462046FEF7EBFD002374
:101F34006365054B9B6823B1DB6EE366284605B0F9
:101F4400F0BDE366FAE700BF680300200123437392
:101F54000373002303664366C366014B98607047AE
:101F640068030020094A936858676FF00A0199676B
:101F740007494B6843F080534B60002383F3118877
:101F8400BFF36F8F9368986F704700BF680300209A
:101F940000ED00E0437B90F90D20002A51DB13F0A3
:101FA4001F0F4ED110B563F07F034373254A52F8D7
:101FB400183F93420ED100230CE05A68426003603C
:101FC400106058601EE01A461E49C9698A420FD043
:101FD4001B687BB173B190F90E1093F90E209142F6
:101FE400F1D0521A002AE8DC1A46002BECD1F0E7B3
:101FF4000023EEE7134BDA6903F118010160426034
:102004001060D8610F4B53F8184F9C420ED06CB13E
:102014000C4B9B685A7B12F01F0F0AD1DA897F2A76
:1020240007D9A2692AB9074A536109E0054BDC685C
:10203400EEE7A34202D0204600F086FB014B5C6130
:1020440010BD70476803002010B5437B90F90D2044
:10205400002A14DB154B9A6853F8184F9C4219D088
:10206400C4B1824219D0537B13F01F0F15D1D38909
:102074007F2B12D9A36983B90C4B5A6114E003F086
:102084007F0343734268036813605A60002303604C
:102094004360DFE7054BDC68E3E7A24202D0204659
:1020A40000F052FB014B5C6110BD00BF68030020CF
:1020B4002DE9F04105460C463D4B9E68737B13F0B9
:1020C400600F23D013F0200F25D008271F421DD105
:1020D4003B43737313F0800F1FD1082F28D04FF0A8
:1020E4000008334B53F8186F9E4246D0002E44D05C
:1020F4002F4B9B68B34202D0304600F025FB2C4B9B
:102104005E61102F02D0B8F1000F39D184F3118829
:10211400BFF36F8F45E01027D8E703F07F03737395
:102124007268336813605A60002333607360D4E7C5
:10213400B3685BB17268336813605A60002333601C
:102144007360727B22F002027273B360304601F056
:10215400C0FF06F1580001F0C1FF154B9B689E4279
:1021640002D04FF00008BCE7EFF3058313B94FF03A
:102174000008B6E74FF00108B3E70D4BDE68B7E798
:102184000C48FFF7E3FEC1E7EFF31184102383F358
:102194001288BFF36F8F01F038FF84F31188BFF307
:1021A4006F8F6B7B13F0600FEED1BDE8F08100BF41
:1021B400680300208001002010B5437B90F90D20B6
:1021C400002A0ADB437B63F07F0343732B4A52F8F4
:1021D400183F934219D1002317E003F07F034373A0
:1021E4004268036813605A60002303604360E9E7B0
:1021F4005A6842600360106058601EE01A461F4926
:10220400C9698A420FD01B687BB173B190F90E1073
:1022140093F90E209142F1D0521A002AE8DC1A46B2
:10222400002BECD1F0E70023EEE7144BDA6903F15D
:102234001801016042601060D861104B9A6853F82D
:10224400184F9C420ED06CB182420ED0537B13F0D7
:102254001F0F0AD1D3897F2B07D9A3692BB9074B49
:102264005A6109E0054BDC68EEE7A24202D0204641
:1022740000F06AFA014B5C6110BD00BF68030020E6
:1022840008B50B4659B9EFF3058242B9064A5069BD
:102294009268904203D00846FFF764FE03E083F39C
:1022A4001188BFF36F8F08BD6803002008B503468B
:1022B40050B9EFF305823AB9064A516992689142DE
:1022C40002D0FFF74FFE03E083F31188BFF36F8F53
:1022D40008BD00BF680300200023EFF31181102222
:1022E40082F31288BFF36F8F09E0064B9A68D37BA1
:1022F400013BD37381F31188BFF36F8F0123002B4C
:10230400F3D070476803002038B50023EFF311853C
:10231400102282F31288BFF36F8F0EE0154BDC6836
:1023240017E0A24202D0204600F00EFA114B5C6185
:1023340085F31188BFF36F8F0123BBB90D4B9A68E6
:10234400D17B0131D17353F8184F9C42E6D0002C55
:10235400E4D0537B13F01F0FE3D1D3897F2BE0D953
:10236400A369002BDDD1034B5A61E1E701F026FF9D
:1023740038BD00BF6803002008B5024801F029FFFA
:1023840008BD00BF7C03002038B5EFF3118410238F
:1023940083F31288BFF36F8F224B9A68DB699A42EA
:1023A40005D01368516812680A60516006E0002382
:1023B400F8E71C4AD269934212D01B6893B1194AB8
:1023C400906890F90E1093F90E209142F1D0521AB0
:1023D400002AEEDD5A6842600360106058600AE02B
:1023E4000023EBE70F4B9A68D96903F118001060DA
:1023F40051600A60DA610B4B53F8185F9D420DD0AF
:1024040065B1084B9B689D4202D0284600F09CF9B8
:10241400044B5D612046FFF7A5FD38BD014BDD6827
:10242400EFE700BF68030020F8B551EA000328D0A5
:1024340005460C46EFF31187102383F31288BFF38C
:102444006F8F154EB068154B1860FFF7FDFDB0682F
:102454002A4623461249183000F012FA0446B2689C
:10246400537B43F0040353733846FFF77BFDB36893
:102474009A6ADB6AB3F1004F08BF002A05D0002036
:10248400F8BDFFF781FF0020FAE701F007FF201AEB
:102494000028F5DC0020F3E768030020880300200F
:1024A400B541000838B504460D46FFF7BDFF0346A5
:1024B4002046B5F1FF3F08BFB4F1FF3F2ED0DA1735
:1024C40013F1090042F100030A2873F1000224D336
:1024D4006FF00A0282424FF004029A411FD3002196
:1024E400C21818D20A440F49A1FB024525F003047F
:1024F40004EB9504121B801A63F100034FF0CC32F5
:1025040000FB02F201FB0323A0FB01010B44400882
:1025140040EAC37002E00121E4E7002038BD6FF017
:102524000040FBE7CDCCCCCC38B5EFF311851023BC
:1025340083F31288BFF36F8F437B13F0040F04D12E
:1025440085F31188BFF36F8F38BD0446183001F04E
:1025540076FE637B23F0040363732046FFF71AFDC2
:1025640029460248FFF78CFEEEE700BF88030020EF
:10257400014B9868704700BF680300202DE9F843B9
:10258400037B03F00107EFF31186102383F3128812
:10259400BFF36F8F457B15F0080F1AD10446B1467F
:1025A40000F1580801F061FD10B345F02005657392
:1025B400EFF305839BB131462046FFF779FD67B100
:1025C400002383F31188BFF36F8F0423184602DFBF
:1025D40003E086F31188BFF36F8FBDE8F8834146AB
:1025E4003C4B986801F043FD3046FFF7BBFCE6E73F
:1025F40045F00803637313F0800F30D1A3685BB117
:102604006268236813605A60002323606360627BFE
:1026140022F002026273A36004F1180001F00FFEBD
:10262400404601F05BFD2B4B9A68944224D000266F
:10263400284B53F8185F9D4225D025B3AA4202D0F7
:10264400284600F081F8234B5D61FEB9214B9B685D
:102654009C421FD089F31188BFF36F8FAFE705F059
:102664007F0545F0080565736268236813605A6046
:10267400002323606360C1E7EFF305830BB90026F1
:10268400D6E70126D4E7134BDD68D7E71248FFF7F6
:102694005DFCDBE7EFF30583002BDBD1237B13F039
:1026A400010F12D089F31188BFF36F8F002383F3D6
:1026B4001188BFF36F8F0423184602DFEFF31189EB
:1026C400102383F31288BFF36F8F4846FFF74AFC49
:1026D40075E700BF6803002080010020044BC01A86
:1026E400C010044B03FB00F0034B01221A54704743
:1026F40000020020ABAAAAAA8C030020C3897F2B66
:1027040011D80E4B1B687BB190F90E200C4B1B6843
:102714009A420CDB437B13F01F0F0AD1094B9842FA
:1027240009D0012300E0002303F0010070470023D7
:10273400FAE70023F8E70023F6E700BF940300203C
:10274400900300208000002070B505460D4B1E7CD0
:1027540006EB46030C4C04EBC304204601F06FFD6A
:102764000A4B00229A552846FFF7C8FF00B970BDEE
:10277400074B1A68013AD3170649204600F080F83F
:10278400F5E700BF68030020000200208C0300204E
:1027940094030020E126000838B5EFF311851023D7
:1027A40083F31288BFF36F8F144B9C68144B1B6820
:1027B400A34217D0124B00221A60104B1B7C114A03
:1027C400D35C53B12046FFF799FF30B1637B13F01C
:1027D4001F0F0FD02046FFF7B7FF85F31188BFF313
:1027E4006F8F38BD2046FFF7AFFF85F31188BFF325
:1027F4006F8FF6E72046FFF7DFFCEBE76803002066
:10280400880300208C03002008B50648064A121AE3
:10281400064901F0EBFB0648064A121A064901F084
:10282400E5FB08BD000000206E000020944C000869
:102834000000002000000020944C0008034B18689E
:10284400984200D070470020FCE700BF4C000020F5
:1028540030B1044A5268904201D0006870470020A9
:10286400704700BF4C00002008B5044B1B680BB137
:10287400002008BDFFF750F8FBE700BF98030020D5
:102884002DE9F04F83B00193B3F1FF3F08BFB2F1DC
:10289400FF3F0DD00446914681600023EFF3118A77
:1028A400102282F31288BFF36F8F1D461E4635E057
:1028B40000252E462846314603B0BDE8F08FFFF7C9
:1028C400D3FF80460135019B43F10006451946EBD1
:1028D400E07625616661384A13685268ED1846EB64
:1028E40002064FF0010B41E0C91A67EB02020161D5
:1028F40042614368636020601C60446005E02F4BC4
:102904005A682360626014605C60FFF797FF84423A
:1029140040D08AF31188BFF36F8F0123002BC9D1F4
:102924004D46019E6FF00103B3EB09034FF0FF33F3
:1029340063EB0603002BC2DB1F4B19685B68691845
:10294400019A43EB02036FF00102521A4FF0FF3178
:1029540061EB030310461946012A73F1000301DAFF
:1029640001200021206161614FF0000BFFF766FF39
:102974000028C4D001694769236962698B4272EBFC
:10298400070EB1DB5B1A62EB070223616261FFF79A
:102994005FFFEDE70A4B1B68002BBAD1BBF1000FB8
:1029A40006D0404601F030FC0021FEF723FFB0E7DB
:1029B400FFF75AFF8046F4E7180200204C0000207D
:1029C4009803002070B5EFF31186102383F3128867
:1029D400BFF36F8F2A4B1860FFF730FF044623E0E4
:1029E400284A136851685B1941EBE5711360516023
:1029F40000220023C4E90423204601F0EEFB86F301
:102A04001188BFF36F8FA36820469847EFF31186B0
:102A1400102383F31288BFF36F8F194A13685B1B6B
:102A24001360FFF70BFF04463CB125696169144B41
:102A34001A68D317AA428B41D2DA44B12369626976
:102A44000F4909685B1A62EBE172236162610D4A06
:102A54000B4D2868136851681B1841EBE071136033
:102A6400516000242C60204601F0CEFB2146FEF785
:102A7400C1FE86F31188BFF36F8FFFF78DFE70BD23
:102A8400980300201802002010B50022EFF31184EF
:102A9400102383F31288BFF36F8F134611460CE0A3
:102AA400FFF7E2FE074A13685168C31841EBE0716F
:102AB40084F31188BFF36F8F0122002AF0D01846E7
:102AC40010BD00BF1802002008B5024800F025FB25
:102AD40008BD00BF484C00082DE9F04F8DB0436895
:102AE4000293837815469A07804640F10D810024AD
:102AF4000E78002E00F00A81252E0BD04B1C039378
:102B04000134029B4146304698470028C0F2F680C3
:102B14000399EDE74E788B1C252E0393F0D0002704
:102B2400B946BB46BBF11F0F38D8A6F12003102BC2
:102B34000AD8DFE803F02A0909300909092109093B
:102B44000928092D09091F00A6F13003092B33D9DF
:102B54002A2E37D11BF0400F55F8043B40F08280F9
:102B6400002BA7BF4BF0200B9946C3F100094BF093
:102B7400280B01E04BF0010B039B13F8016B03934B
:102B8400002ECFD130E04BF0020B4BF0040BF3E7F7
:102B94004BF0080BF0E74BF0100BEDE7BBF17F0FA8
:102BA40019D8A6F13003092BD2D81BF0400F03D05B
:102BB4000A2101FB0737DFE70A2101FB09394BF042
:102BC400200BD9E72E2E06D11BF0400F40F09E803B
:102BD4004BF0400BD0E76C2E31D02BD8682E36D07A
:102BE4006A2E3CD04C2E3AD0002F46F02003B8BFBA
:102BF4002BF04002A3F16501BCBF1FFA82FB002742
:102C0400022901D9612B2FD1073525F00705DFF8FB
:102C1400ACA2083507271BF0080F66D00AEB070B98
:102C240056465E4563D1A4EB0A0A06EB0A02A9EBF9
:102C340007096FE1742E9FD07A2E9DD0D4E71BF044
:102C4400800F18BF4BF4007B4BF0800B94E71BF410
:102C5400807F18BF4BF4007B4BF4807B8CE74BF4F4
:102C6400207B89E71F4687E7A6F16301122900F25A
:102C7400F080DFE811F013004F00EE00EE00EE00EC
:102C8400EE004F00EE00EE00EE00EE00EE00FE005F
:102C9400E900EE00EE001B00EE00AF0055F8043B27
:102CA4008DF8183001270DF1180AB4E755F804AB74
:102CB400834BBAF1000F08BF9A461BF0400F14BFB4
:102CC40039464FF0FF31504601F002FB0746A2E7B8
:102CD400029B41462020984700280FDB013EB74263
:102CE400F6D34C44A41BB14698E74E46F7E716F8D2
:102CF400010B029B41469847002892DA98F802306B
:102D040043F0040388F802304FF0FF3420460DB03E
:102D1400BDE8F08F1BF0800F34D01BF4007F2CD063
:102D2400073525F00705AA4669685AF8080B2BF001
:102D340010050029ADB237DA404261EB410145F498
:102D440080650DF1180B0A235A4601F0CDFAA0EB69
:102D54000B0301936B0662D5019B25F001019F4291
:102D640089B240F3A180002E00F0998015F0100282
:102D740040F09C80BB460D4623E0AA465AF8040B5B
:102D8400C117D4E7AA461BF4807F5AF8041B01D16B
:102D94000846F5E71BF4007F15BF48B208B241F3BB
:102DA400C01141F3C031C2E750EA0103C9D11BF09D
:102DB400400FC6D0002FC4D12BF0110295B2BB46F0
:102DC400019740F2064115EA01021CBF0BF1010B09
:102DD40000222CE02BF010021FFA82FB0A231BF0C6
:102DE400800C49D01BF400711DBF073525F0070581
:102DF400AA46AA461ABF5AF8080B69685AF8040B7F
:102E040050EA010545D12BF016051BF0400FADB279
:102E140042D0002F40D12BF0170295B2019715F044
:102E2400100248D0019B002E42D103F1010B290767
:102E34005AD4EB0706D5D9456FDD0199A9EB0B03ED
:102E44005F18CB465B4649E04BF0100B1023782605
:102E5400C5E7782B04D1C6F1780343F01003BEE72D
:102E6400029B4146252098470028FFF647AF0234CD
:102E740047E608230026B2E7AA461BF480715AF8F5
:102E8400040BBDD01BF400711ABFC0B2614680B2FE
:102E9400B6E72BF0060295B20DF1180B54E725F0B6
:102EA4001105ADB2BB468CE70D46B8E73B460D466F
:102EB40003F1020BBBE7DDF804B082E78A4C00089B
:102EC400834C0008CDE904324146029B20209847F8
:102ED4000028FFF613AF049B059A01339945F1DCF2
:102EE400A4EB0B01CC189B460AB3029B414630204D
:102EF40098470028FFF602AF8EB901342744019B9E
:102F0400391B994224DC1D465DBB019AA9EB0B09D0
:102F1400224455461446914435E0019F92E7023419
:102F240041463046029B98470028E7DAE6E640F23D
:102F340006410D42E2D015F0020F14BF2B202020D1
:102F440015F4806F04F10104414618BF2D20E9E710
:102F5400029B414630209847002804F10104CEDA50
:102F6400CCE606AB013D4146585D029B98470028DC
:102F7400CADAC3E6029B414620209847002804F1A0
:102F84000104FFF6BBAEA9EB0403002BF2DCBFE5A2
:102F9400704738B513468568046912F4801F07D05A
:102FA40012F4402F04D012F0010F01D082F4402318
:102FB40023F4801213F0010F0AD023684FF0010CA0
:102FC4000CFA01FC43EA0C0323602B68984738BDD4
:102FD40023684FF0010C0CFA01FC23EA0C03236074
:102FE400F3E708B503468C4600681979DA8842EAA3
:102FF4000C02FFF7CEFF08BD08B5034600681B7935
:103004000121994083685B69984708BD08B520EAA7
:10301400E073D9178A0042EA93729800C01841EB12
:10302400020100184941FFF73DFA08BD10B5131D10
:1030340050F8234074B9C368012494402343C36007
:10304400043240F82210CB001A1D89B28152063393
:10305400C15210BDE2000432835A4FEAC10C0CF194
:10306400040E20F80E300CF1060C20F80C40DB00A6
:10307400063389B2C1528152EBE708B500EBC103B4
:103084005A885208B2FA82F2C2F11F02FFF7CEFF49
:1030940008BD70B50346043AC81D20F007000A4471
:1030A40022F00702121AD508186085600023C36055
:1030B400B5FA85F1C1F1200EC1F124018900CE1DBC
:1030C400F10805E003F1040C002440F82C4001331E
:1030D4007345F7DB4C00A4B244804FF0000CA0F819
:1030E40000C044F0010444806B1A4FEA430E26F0FA
:1030F4000704A51C20F805E0015322F00704951CE1
:1031040020F805C002440353538843F0010353805D
:10311400FFF7B3FF70BD002070470FB400B583B054
:1031240004A951F8040B0191FDF7E2F903B05DF82D
:1031340004EB04B07047704708B5012802D0FEF7CD
:1031440071FD08BDEFF30583F9E708B50146006892
:10315400FFF7F2FF08BD0020704700230B70704793
:1031640008B500231370CB1E092B1AD8DFE803F02F
:1031740005090D111919191919141146FDF75CFBEC
:1031840010E00021FDF7EEFA0CE00021FDF754FAFF
:1031940008E0FDF797FA05E01146FFF7DEFF00208F
:1031A40000E0002008BD08B540B2FDF75FFC08BD93
:1031B40008B5013140B2FDF767FC08BD08B5002130
:1031C4000120FFF7B9FF08BD61B662B680F311882C
:1031D400BFF36F8F704772B6002383F31188BFF378
:1031E4006F8FBFF34F8F30BF62B6BFF36F8F7047DF
:1031F40043685A1E134206D11F2B06D903681A428C
:1032040005D000207047002070470020704701203F
:10321400704700B585B00B6801934B688A68202B12
:1032240012D9B3F1004F11D8013BB3FA83F3C3F1C0
:103234001F035B0003F03E031343039301A9FDF74F
:1032440023FD05B05DF804FB0823F5E73E23F3E70F
:103254002DE9F84380460F4699461646002509E0B5
:103264002146F0B2FFF7D5FF064610F1160F14D031
:1032740001360135BD4210DA05EB450408EB840440
:103284006268002AF5D0B9F1000FE9D02046FFF7B3
:10329400AFFF0028E4D16FF015063046BDE8F8838F
:1032A400F0B585B0054603A8FDF774F90646002479
:1032B40024E0B3F5801F20D1576809589368202B68
:1032C40064D9B3F1004F63D8013BB3FA83F3C3F17C
:1032D4001F035B0003F03E0343F0885343F43023A1
:1032E40000970191029369462878FDF7CDFC0028E8
:1032F400C0F2A8802B7801332B700134B44280F0E3
:10330400A4802001039901EB0412D3681B0D1B0553
:10331400B3F5000F5ED01DD8B3F5001F3AD0B3F556
:10332400800FC6D1576809589368202B4ED9B3F142
:10333400004F4DD8013BB3FA83F3C3F11F035B0085
:1033440003F03E0343F0E06343F40033009701913C
:103354000293C8E7B3F1807F56D0B3F1007FCCD19C
:10336400576809589368202B68D9B3F1004F67D880
:10337400013BB3FA83F3C3F11F035B0003F03E0385
:1033840043F48023009701910293ACE70823A3E759
:103394003E23A1E7576809589368202B12D9B3F14B
:1033A400004F11D8013BB3FA83F3C3F11F035B0051
:1033B40003F03E0343F0885343F400230097019144
:1033C400029390E70823F5E73E23F3E70823B9E7E0
:1033D4003E23B7E7576809589368202B10D9B3F1F7
:1033E400004F0FD8013BB3FA83F3C3F11F035B0013
:1033F40003F03E0343F0827300970191029372E756
:103404000823F7E73E23F5E7576809589368202B0C
:1034140010D9B3F1004F0FD8013BB3FA83F3C3F1D2
:103424001F035B0003F03E0343F088730097019190
:10343400029358E70823F7E73E23F5E708239FE7BD
:103444003E239DE76FF0150000E0002005B0F0BDBD
:1034540008B5FDF72DFC08BD08B5FDF733FC08BD24
:1034640008B5FDF7A3FC002008BD08B5062201211C
:103474000020FDF703FD002211460620FFF798FE09
:10348400072201210846FDF7F9FC00221146072016
:10349400FFF78EFE082201210220FDF7EFFC002237
:1034A40011460820FFF784FE092201210320FDF7BD
:1034B400E5FC002211460920FFF77AFE0A220121C9
:1034C4000420FDF7DBFC002211460A20FFF770FE02
:1034D400172205210846FDF7D1FC002211461720CA
:1034E400FFF766FE282206210A20FDF7C7FC00220A
:1034F40011462820FFF75CFEFDF7A2FC08BD012061
:103504008840704708B50246084602F003030433B6
:103514009B000F21994041EA9201FDF7C1FC08BDCF
:1035240008B500F0030304339B000F2202FA03F3EF
:1035340043EA9000FDF7D0FC08BDB0FBF1F002FBBC
:1035440000F0B0FBF3F07047B0FBF1F070470B886C
:10355400C3F30B0303F57D62C2F30B02782A15D87B
:1035640082B003F1804303F50E334A6818680243BE
:103574001A600B88C3F30B0303F1804303F50E3386
:103584001B680193019B002002B070476FF0850017
:1035940070470B88C3F30B0303F57D62C2F30B0280
:1035A400782A0AD803F1804303F50E3349681A6870
:1035B40022EA01021A60002070476FF0850070470C
:1035C400072806D8EA23C34013F0010F04D00020D3
:1035D40070476FF0850070476FF08500704710B535
:1035E4000C460888C0F30B00FFF7EAFF00281EDB37
:1035F4006368FF2B1CD09AB202F1804202F50E32AE
:10360400C3F38451C3F305439940136823EA0103C8
:10361400136061688BB203F1804303F50E33CA0E65
:10362400C1F305418A4019680A431A60002010BD9D
:103634000020FCE708B50888C0F30B0000F57D63A3
:10364400C3F30B03782B0BD800F1804000F50E3048
:1036540002684B68934301D0012008BD0220FCE7B7
:10366400FFF7AEFF08B10120F7E70220F5E7704746
:103674004FF4800070470B4639B1116819604168F6
:103684008A4209D0002313607047136803604168BD
:103694008A42F7D14360F5E74360F3E708B50A4689
:1036A4000368002101E019461B682BB19342FAD14B
:1036B400FFF7E1FF012000E0002008BD70B50446DB
:1036C4000D461646036833B1FFF7E8FF70B91EB91B
:1036D4006FF0150006E032B123682B602560636843
:1036E40043B1002070BD6FF01500FBE7002EF3D14D
:1036F4000020F7E765600020F4E770B50E46154634
:10370400016821B10C683CB131B90C4604E00C46A7
:1037140002E0234621461C4671B18A682A4002D041
:103724004B6830469847002CF3D02368002BF1D027
:10373400002CEFD12346EDE770BD08B502460846DC
:1037440049680830FFF7D9FF08BD10F4003F19D0CD
:1037540010230B6010F0020F04D010F0040F45D0BA
:1037640050230B6010F0100F04D00B6843F4007367
:103774000B601CE010F0200F19D00B6843F4806339
:103784000B6014E010F4803F0FD000230B6010F0A6
:10379400100F03D04FF400730B6008E010F0200FFB
:1037A40005D04FF480630B6001E030230B6000F41C
:1037B400C060B0F5806F0DD0B0F5C06F04D0B0F527
:1037C400007F0DD0002070470B6843F4C0730B607A
:1037D400002070470B6843F480730B60002070472F
:1037E4000B6843F080030B60002070476FF0850086
:1037F400704743685B681B690B600020704743682F
:103804005B68586942400A4042405A610020704750
:1038140043685B6899610020704743685B680904EA
:1038240099610020704743685A6853694B4053615B
:103834000020704708B500690830FFF73FFF08BD56
:1038440010B4046891FAA1F39BB1B3FA83F35B005B
:103854004FF0030C0CFA03F324EA030391FAA1F1E9
:1038640049B1B1FA81F149008A401343036010BCA5
:1038740070472023EBE72021F5E710B4846891FA20
:10388400A1F39BB1B3FA83F35B004FF0030C0CFA82
:1038940003F324EA030391FAA1F149B1B1FA81F1E6
:1038A40049008A401343836010BC70472023EBE730
:1038B4002021F5E710B4C46891FAA1F39BB1B3FADF
:1038C40083F35B004FF0030C0CFA03F324EA0303C5
:1038D40091FAA1F149B1B1FA81F149008A40134347
:1038E400C36010BC70472023EBE72021F5E710B438
:1038F400046A91FAA1F39BB1B3FA83F39B004FF0EE
:103904000F0C0CFA03F324EA030391FAA1F149B171
:10391400B1FA81F189008A401343036210BC7047F5
:103924002023EBE72021F5E710B4446A090A91FA51
:10393400A1F39BB1B3FA83F39B004FF00F0C0CFA85
:1039440003F324EA030491FAA1F149B1B1FA81F134
:1039540089008A401443446210BC70472023EBE77B
:103964002021F5E72DE9F8430F46154698464368AC
:103974005E6801248C4002F03009C2F38013706841
:1039840020EA04008B4018437060C2F3C112214640
:103994003046FFF772FFC5F3412221463046FFF758
:1039A40089FFB9F1200F07D04FEA1912214630469A
:1039B400FFF746FFBDE8F883072F05D842462146A6
:1039C4003046FFF794FFEFE7424621463046FFF7C3
:1039D400ABFFE9E72DE9F04383B005460E461446F4
:1039E400D0F8108001A91046FFF7AFFE074668BB68
:1039F40014F440390BD0D8F8103023FA06F212F040
:103A0400010F04D10122B2401343C8F8103014F45A
:103A1400003F05D014F4002F1CD114F4802F1FD1C3
:103A24000023019A31462846FFF79CFFB9F1000FA5
:103A34000CD1D8F8103023FA06F212F0010F05D099
:103A44000122B24023EA0203C8F81030384603B01A
:103A5400BDE8F0830121B1402846FFF7D9FEDFE736
:103A64000121B1402846FFF7D8FED9E738B504460E
:103A74000D460846FFF754FDA04200D038BD294644
:103A84002046FFF73CFD0446FDF752FA2046FDF7B9
:103A9400A9FA00212046FDF753FAEFE7F8B50746E7
:103AA4000D4616461C46FFF75DFF112C01D0002081
:103AB400F8BD16F4006F05D00121A9403846FFF780
:103AC400A7FEF4E70121A9403846FFF7A6FEEEE77A
:103AD40000B50368136001E008331360136890F8BD
:103AE40004C0D0F800E00EEBCC0C634505D293F88B
:103AF40005C08C45F0D1002001E06FF001005DF8B5
:103B040004FBF8B506460F460024254615E002F0EE
:103B14001F01102920D011291CD0530A1B0103F4C2
:103B2400F873C2F3431002F01F0229461843FDF74D
:103B34009FFC002813DB0134E4B2BC420ED206EB36
:103B4400C40356F8342012F0100FE0D15D6845F03C
:103B54002005E2E75D68E0E73025DEE70020F8BDF8
:103B640043681868C1F34B1301F01F01C0580123C7
:103B74008B40184214BF01230023137000207047A8
:103B840010B443681C68C1F34B1001F01F012358A3
:103B940001228A4013432350002010BC704710B404
:103BA40043681C68C1F34B1001F01F012358012224
:103BB4008A4023EA02032350002010BC704738B522
:103BC40004460D46FFF7DCFF29462046FFF7E7FFD2
:103BD400002038BD08B58368DB680BB1984708BD81
:103BE4006FF05700FBE730B583B00C4643681D689F
:103BF40002691068D9688368DB686BB101AA9847C9
:103C0400002809DBEB6823F40043EB602346002221
:103C140001992846FDF74CFC03B030BDF8B50C46BD
:103C2400476803695D68097901294ED002294FD19B
:103C34004FF480636279012A4FD0022A4FD0002AC0
:103C440048D04FF40052A679042E4BD000294CD111
:103C54004FF0000CE17901294AD00021A5424AD055
:103C64003F68FE6806F4C06E734504D0FE6826F40F
:103C7400C0663343FB6043681E68336903F44053F2
:103C84009A4204D0336923F44053134333614368A5
:103C94001A68D36803F480539C4505D0D36823F491
:103CA40080534CEA0303D36043681A68536903F4EE
:103CB4004073994204D0536923F44073194351610A
:103CC40021682B6899422ED1F8BD4FF4C063B1E747
:103CD4000023AFE74FF48052B5E70022B3E74FF477
:103CE4004052B0E74FF4805CB4E74FF4805CB1E736
:103CF4004FF44071B2E73E68F56825F4B05543EAE5
:103D04000C032B43F360336923F4405313433361AF
:103D140043681A68536923F440730B435361216861
:103D2400FFF761FFD0E7FFF75EFF23682B60CBE767
:103D340003695B681B680B6043681B68DB6803F4FA
:103D4400C063B3F5806F2AD0B3F5C06F29D10123C6
:103D54000B7143681B681B6903F44053B3F5805F20
:103D640023D0B3F5405F22D0EBB103234B714368FA
:103D74001B68DA68DB6803F4C06312F4805F18D14F
:103D8400E3B903238B7143681B685B6903F44073D5
:103D9400B3F5407F14D00023CB7100207047022379
:103DA400D6E70023D4E70123E0E70023DEE702237C
:103DB400DCE70BB90423E5E70323E3E70223E1E7A8
:103DC4000123E9E700B583B043681868036813F07A
:103DD400080F05D003680193019B43680193019B7D
:103DE400036813F0200F04D09047002003B05DF85F
:103DF40004FB4FF0FF30F9E710B543681868036817
:103E040013F0800FFBD0EFF31184102383F3128897
:103E1400BFF36F8F036813F0800F04D184F311880C
:103E2400BFF36F8FEBE7904784F31188BFF36F8F75
:103E340010BD43680B707047C9B24160704784B0CD
:103E440043681B68186810F0080000D001201A6845
:103E540012F0010F01D040F002001A6812F0020FB4
:103E640001D040F004001A6812F0040F01D040F0B1
:103E740020001A6812F4807F01D040F0080010F08E
:103E8400080F02D06FF480721A6010F0010F05D091
:103E94001A680092009A5A680092009A10F0020F71
:103EA40005D01A680192019A5A680192019A10F099
:103EB400040F05D01A680292029A5A680292029A72
:103EC40010F0200F05D01A680392039A5B680393DD
:103ED400039B04B07047F8B5054646683468036927
:103EE4005F68E36823F40053E360706800F048F807
:103EF400F8B1B1687068FFF76DFE04F10C0353E884
:103F0400003F43F00C0304F10C0141E80032002AA5
:103F1400F3D139462846FFF781FE337D1BB163692F
:103F240043F008036361E36843F40053E360002053
:103F3400F8BD6FF01200FBE700B583B001AAFFF7EC
:103F4400C7FD002805DB019B002219791868FFF7DB
:103F5400D8FD03B05DF804FB38B504464568FDF7A9
:103F6400BDFB00280BDB0021286AFFF7E5FF0028D2
:103F740005DB2046FFF7AFFF002800DB002038BD3B
:103F840060B1C3685A7812F0010F03D01B781BB1DB
:103F940000207047002070470120704700207047C0
:103FA400EFF31183102383F31288BFF36F8FFEE7BF
:103FB40008B5FFF7F5FF10B50446436983B1984788
:103FC40030B100280ADBFF2800DDFF20E368187009
:103FD400E268537843F00103537010BD4042F2E7A6
:103FE4000020F5E708B500F06BF908BD08B500F04E
:103FF40059F908BD08B5EFF31183102383F3128830
:10400400BFF36F8FFFF7E7F8F5E700BF7047F8B528
:104014000546D31D23F007037F3323F03F0301F14B
:104024004007A3F140063F2B07D8002282F31188F2
:10403400BFF36F8F0422104602DFCC1821462846B6
:10404400FCF7D8FA073020F007002F666E66A866E2
:10405400201AF8BD10B40024846003734273817382
:10406400C4738461C46110BC70470020704738B5C4
:1040740004460D46FDF7E8FF637B43F002036373D8
:1040840035B3A5602B689D420DD100230BE05A681F
:104094006260236014605C601AE01A4669688A42B0
:1040A4000FD01B687BB173B194F90E1093F90E20F5
:1040B4009142F2D0521A002AE9DC1A46002BEDD1C3
:1040C400F0E70023EEE76B68256063601C606C60BA
:1040D40038BD08B5183000F0B2F808BD70B5064612
:1040E4000468844219D0D4B16268236813605A60AA
:1040F400002525606560637B23F002036373A5607C
:1041040004F1180000F09BF8A5672046FDF742FF74
:104114003468A642E7D12C46E5E70024E3E770BD06
:1041240038B504460023EFF31185102282F3128878
:10413400BFF36F8F04E085F31188BFF36F8F012302
:1041440043B92046FFF791FF0028F4D12046FDF73C
:1041540021FFF0E738BD38B504460023EFF311859D
:10416400102282F31288BFF36F8F0BE0637B23F07E
:10417400040363732046FDF70DFF85F31188BFF335
:104184006F8F01239BB9637B13F0280FF5D1A368CC
:10419400002BEBD06268236813605A60002323600D
:1041A4006360627B22F002026273A360DEE738BDC3
:1041B40008B501211838FFF7CEFF08BD08B5EFF3A5
:1041C4001180102383F31288BFF36F8FFEF76EF80C
:1041D40008BD031D43608360704710B50446FEF7B5
:1041E40037FB48B102460369416920691B186069BD
:1041F40041EB0001136151616268236813605A60E6
:1042040000232360636010BD10B50446FEF716FB5F
:1042140078B1036942691B1B62EBE472B3F1004F8E
:1042240072F1000108DA002A01DB184610BD0023F0
:10423400FBE76FF00040F9E76FF00040F6E7F8B5F0
:1042440004460023EFF31187102282F31288BFF390
:104254006F8F6FF015000CE0FEF706FBFFF7D4FF3D
:104264000021FDF7C7FA304687F31188BFF36F8F3B
:1042740001231E468BB92368002BF5D0FEF7DEFA26
:1042840005462046FFF7A9FF00224FF00043C4E98A
:104294000423A542E0D03046E6E7F8BD08B5FEF7B2
:1042A400F3FB08BD0A44914200F1FF3300D170478B
:1042B40010B511F8014B03F8014F9142F9D110BD2B
:1042C40002440346934200D1704703F8011BF9E707
:1042D40010B5024601448A42134603D01C780132C9
:1042E400002CF8D1181A10BDF0B5C3F137070446F5
:1042F400FFB203F01F031046082BE6B233D0102B95
:104304003ED06508A40844EA817445EAC1752D19B4
:104314004FEA910242EB5102290941EA02716D18F8
:1043240042EB1212290A41EA02616D1842EB122291
:10433400290C41EA02416D1842EB1242AD1842F1D8
:104344000002EC0844EA4274D10804EB8402A6EBB0
:104354004205EDB2092D0CD90134A5F10A0541F14C
:104364000001EDB212E0E40844EA417406F00705E6
:10437400C908303554EA010200F8015BBCD1F0BD34
:10438400240944EA017406F00F050909092D84BFC4
:10439400ED19EDB2EDE70000014800687047000038
:0443A40020020020D3
:0843A80050BEFF7F0100000080
:1043B0000000000038440008550500080000000017
:1043C00000000000584400080000000038450008C4
:1043D0000000000078450008000000007844000854
:1043E00000000000584500080000000018450008C3
:1043F00000000000F844000800000000D844000855
:1044000000000000B84400080000000098440008C4
:10441000000000009845000800000000B8450008B2
:104420005D1300080000000059170008000000009C
:08443000D90D00080000000096
:10443800D449000800000000144900085600002074
:1044480000000000F5110008000000000000000056
:10445800484B00085C4B000804490008680000202D
:104468000000000000000000000000000000000044
:10447800B4490008000000000000000054000020BB
:10448800400200206F340008000000000000000017
:10449800E4490008644A0008E04800085800002081
:1044A800C0020020491400080000000000000000BD
:1044B800F4490008784A0008E04800085A0000203B
:1044C800D402002049140008000000000000000089
:1044D800044A00088C4A0008E04800085C000020F4
:1044E800E802002049140008000000000000000055
:1044F800144A0008A04A0008E04800085E000020AE
:10450800FC02002049140008000000000000000020
:10451800244A0008B44A0008E04800086000002067
:1045280010030020491400080000000000000000EB
:10453800344A0008C84A0008E04800086200002021
:1045480024030020491400080000000000000000B7
:10455800444A0008DC4A0008E048000864000020DB
:104568003803002049140008000000000000000083
:10457800544A0008F04A0008E04800086600002095
:104588004C0300204914000800000000000000004F
:10459800604B0008804B0008304900086A00002082
:1045A800280000205D3F0008000000000000000017
:1045B800704B0008CC4B0008304900086C00002004
:1045C800380000205D3F00080000000000000000E7
:1045D80000000000C131000800000000C1310008DF
:1045E80000000000C131000800000000C1310008CF
:1045F80000000000C131000800000000C1310008BF
:10460800B0490008FD0D0008AC490008FD0D000880
:10461800A8490008FD0D0008A4490008FD0D000880
:10462800A0490008FD0D000800000000C131000885
:1046380000000000C131000800000000C13100087E
:1046480000000000C131000800000000C13100086E
:1046580000000000C131000800000000C13100085E
:1046680000000000C131000800000000C13100084E
:1046780000000000C131000800000000C13100083E
:1046880000000000C13100089C490008FD0D000829
:1046980000000000C131000800000000C13100081E
:1046A80000000000C131000800000000C13100080E
:1046B80000000000C131000800000000C1310008FE
:1046C80000000000C131000800000000C1310008EE
:1046D80000000000C131000800000000C1310008DE
:1046E80000000000C131000800000000C1310008CE
:1046F80000000000C131000800000000C1310008BE
:1047080000000000C131000800000000C1310008AD
:1047180098490008FD0D000800000000C13100089C
:1047280000000000C131000800000000C13100088D
:1047380000000000C131000800000000C13100087D
:1047480000000000C131000800000000C13100086D
:1047580000000000C131000800000000C13100085D
:1047680000000000C131000800000000C13100084D
:1047780000000000C131000800000000C13100083D
:1047880000000000C131000800000000C13100082D
:1047980000000000C131000800000000C13100081D
:1047A80000000000C131000800000000C13100080D
:1047B80000000000C131000800000000C1310008FD
:1047C80000000000C131000800000000C1310008ED
:1047D80000000000C131000800000000C1310008DD
:1047E80000000000C131000800000000C1310008CD
:1047F80000000000C131000800000000C1310008BD
:1048080000000000C131000800000000C1310008AC
:1048180000000000C131000800000000C13100089C
:1048280000000000C131000800000000C13100088C
:1048380000000000C131000800000000C13100087C
:1048480000000000C131000800000000C13100086C
:1048580000000000C131000800000000C13100085C
:1048680000000000C131000800000000C13100084C
:1048780000000000C131000800000000C13100083C
:1048880000000000C131000800000000C13100082C
:1048980000000000C131000800000000C13100081C
:1048A80000000000C131000800000000C13100080C
:1048B80000000000C131000800000000C1310008FC
:1048C80000000000C131000800000000C1310008EC
:0848D80000000000C1310008DE
:1048E000D9390008F73700080338000815380008E0
:1048F0001F3800082B380008B513000839380008A5
:0449000000000000B3
:10490400653B0008853B0008A33B0008C33B000847
:104914005335000897350008000000007D1000089A
:0C4924003936000800000000E3350008F0
:10493000C1160008D1160008433E00088115000882
:04494000353D0008F9
:10494400784500080500000048656C6C6F20576FBF
:10495400726C640D0A0000000000002000000000DA
:1049640000000B060200000080490008464C415339
:10497400485F30005352414D5F3000000000000892
:10498400704900082400020700000020784900084C
:1049940020000B110A0600000505000004010000B8
:1049A40003010000020100000101000000010000F9
:1049B400696E746572727570742D636F6E74726F44
:1049C4006C6C657240343030313363303000000039
:1049D40072636340343030323338303000000000CA
:1049E4006770696F4034303032316330300000001A
:1049F4006770696F40343030323138303000000035
:104A04006770696F40343030323134303000000028
:104A14006770696F4034303032313030300000001C
:104A24006770696F403430303230633030000000DA
:104A34006770696F403430303230383030000000F5
:104A44006770696F403430303230343030000000E9
:104A54006770696F403430303230303030000000DD
:104A6400FFFF0000001C02400700000030000000AF
:104A740080000000FFFF0000001802400600000054
:104A84003000000040000000FFFF0000001402405E
:104A9400050000003000000020000000FFFF0000BF
:104AA400001002400400000030000000100000006C
:104AB400FFFF0000000C0240030000003000000073
:104AC40008000000FFFF0000000802400200000090
:104AD4003000000004000000FFFF0000000402405A
:104AE400010000003000000002000000FFFF000091
:104AF400000002400000000030000000010000003F
:104B0400784500085845000838450008184500084D
:104B1400F8440008D8440008B84400089844000841
:104B24000000000000000000000000000000000081
:104B34000000000000000000000000000000000071
:104B44000000000072657365742D636F6E74726F7C
:104B54006C6C657200000000003802407365726975
:104B6400616C4034303030343430300073657269F5
:104B7400616C40343030313130303000004400401A
:104B84005844000811040000A44B00080100000070
:104B9400000000000000000000000000AC4B000812
:104BA4004000000000000200B44B000801000000B7
:104BB400BC4B000802000000470000000002000097
:104BC4006700000000000000001001405844000885
:104BD40084040000F04B0008010000000000000005
:104BE4000000000000000000F84B00084400000032
:104BF40010000000004C000801000000084C0008F0
:104C040002000000C702000000020000E7020000EA
:104C14000000000000000000000000000102030486
:104C2400060708096D61696E00000000B0430008C2
:104C3400B043000828440008304400083844000801
:104C4400384400082A2A2A20426F6F74696E67204C
:104C54005A6570687972204F53206275696C6420BC
:104C640076342E312E302D333034332D6766343183
:104C7400326363363433643931202A2A2A0A0028FD
:104C84006E756C6C29002A666C6F61742A000000D2
:104C94001B310008C9050008000000006534000845
:104CA4000000000000000000FFFFFFFFFFFFFFFF08
:104CB400FFFFFFFFFFFFFFFF0000000030000020A8
:104CC40000C20100000103000000000040000020B9
:104CD40000C20100000103000024F4004C00002085
:044CE4004C00002060
:104CE80000000000000000000000000000000000BC
:0A4CF80000000000000000000000B2
:044D020015E015E0C3
:040000050800098561
:00000001FF
